:100000000C9436000C945E000C945E000C945E0020
:100010000C945E000C945E000C945E000C945E00E8
:100020000C945E000C945E000C945E000C945E00D8
:100030000C945E000C945E000C945E000C945E00C8
:100040000C94E0010C945E000C9450020C942A0273
:100050000C945E000C945E000C945E000C945E00A8
:100060000C945E000C945E008202B50311241FBE46
:10007000CFEFD8E0DEBFCDBF21E0ACE1B1E001C001
:100080001D92AD3CB207E1F711E0A0E0B1E0E2E083
:10009000FCE002C005900D92AC31B107D9F710E039
:1000A000C5E3D0E004C02197FE010E94F203C433EF
:1000B000D107C9F70E94F6020C94F4050C940000D5
:1000C000CF92DF92EF92FF920F931F93CF93DF9324
:1000D0006C017A018B01C0E0D0E0CE15DF0581F024
:1000E000D8016D918D01D601ED91FC910190F081C7
:1000F000E02DC6010995892B11F02196EECF7E01E6
:10010000C701DF91CF911F910F91FF90EF90DF908A
:10011000CF900895089580E090E00895FC01538DFC
:10012000448D252F30E0842F90E0821B930B5417D1
:1001300010F0CF96089501970895FC01918D828D5E
:10014000981761F0828DDF01A80FB11D5D968C912B
:10015000928D9F5F9F73928F90E008958FEF9FEF36
:100160000895FC01918D828D981731F0828DE80FF2
:10017000F11D858D90E008958FEF9FEF0895FC01AC
:10018000918D228D892F90E0805C9F4F821B910979
:100190008F739927089586E291E00E94BF0021E0C5
:1001A000892B09F420E0822F0895FC01848DDF0162
:1001B000A80FB11DA35ABF4F2C91848D90E00196DA
:1001C0008F739927848FA689B7892C93A089B189C9
:1001D0008C91837080648C93938D848D981306C06A
:1001E0000288F389E02D80818F7D80830895EF92CE
:1001F000FF920F931F93CF93DF93EC0181E0888FE1
:100200009B8D8C8D981305C0E889F989808185FDC7
:1002100026C0F62E0B8D10E00F5F1F4F0F731127B6
:10022000E02E8C8DE8120CC00FB607FCFACFE889DF
:10023000F989808185FFF5CFCE010E94D500F1CFED
:100240008B8DFE01E80FF11DE35AFF4FF0829FB73F
:10025000F8940B8FEA89FB89808180620AC09FB77E
:10026000F894EE89FF896083E889F9898081837039
:10027000806480839FBF81E090E0DF91CF911F91E8
:100280000F91FF90EF900895CF93DF93EC01888D4D
:100290008823C9F0EA89FB89808185FD05C0A8898A
:1002A000B9898C9186FD0FC00FB607FCF5CF808110
:1002B00085FFF2CFA889B9898C9185FFEDCFCE015A
:1002C0000E94D500E7CFDF91CF910895CF93DF93C0
:1002D000EC018091C3019091C401009739F0209105
:1002E000C5013091C6012C173D07B8F4BE016F5F00
:1002F0007F4F0E941905009791F09093C40180935D
:10030000C301D093C601C093C5012091C7013091AC
:10031000C801232B11F4FC01108281E001C080E0B0
:10032000DF91CF910895EF92FF920F931F93CF9398
:10033000DF9300D0CDB7DEB7EE24E39486E291E000
:100340000E94BF00892B59F186E291E00E949D0036
:10035000F82E89831A820091C7011091C8010F5F9E
:100360001F4FC8010E946601882399F02091C301A4
:100370003091C4018091C7019091C801BE016F5FA7
:100380007F4F820F931F0E94ED051093C8010093C9
:10039000C7018AE0F812D2CFE0921C01CFCF0F90B4
:1003A0000F90DF91CF911F910F91FF90EF900895E3
:1003B0000E94CB0081110C94930108950E94DF05E7
:1003C0001F920F920FB60F9211242F933F938F938A
:1003D0009F93AF93BF938091220190912301A091AD
:1003E0002401B09125013091210123E0230F2D3705
:1003F00020F40196A11DB11D05C026E8230F029629
:10040000A11DB11D2093210180932201909323010E
:10041000A0932401B093250180911D0190911E01AC
:10042000A0911F01B09120010196A11DB11D8093E3
:100430001D0190931E01A0931F01B0932001BF9155
:10044000AF919F918F913F912F910F900FBE0F9081
:100450001F9018951F920F920FB60F9211242F9391
:100460003F934F935F936F937F938F939F93AF933C
:10047000BF93EF93FF9386E291E00E94D500FF9136
:10048000EF91BF91AF919F918F917F916F915F910C
:100490004F913F912F910F900FBE0F901F90189585
:1004A0001F920F920FB60F9211242F938F939F9349
:1004B000EF93FF93E0913601F09137018081E09155
:1004C0003C01F0913D0182FD12C0908180913F017D
:1004D0008F5F8F7320914001821751F0E0913F01AF
:1004E000F0E0EA5DFE4F958F80933F0101C080816F
:1004F000FF91EF919F918F912F910F900FBE0F90D1
:100500001F901895109229011092280188EE93E00F
:10051000A0E0B0E080932A0190932B01A0932C01DE
:10052000B0932D018AE091E09093270180932601FA
:1005300085EC90E0909333018093320184EC90E05D
:10054000909335018093340180EC90E090933701D3
:100550008093360181EC90E09093390180933801CB
:1005600082EC90E090933B0180933A0186EC90E01E
:1005700090933D0180933C0110923F011092400105
:1005800010924101109242011092C4011092C301D5
:100590001092C6011092C5011092C8011092C701B5
:1005A00080E090E00E9466012091C3013091C40177
:1005B000811113C02115310519F0C9010E94900461
:1005C0001092C4011092C3011092C8011092C70189
:1005D0001092C6011092C50108951092C8011092A0
:1005E000C7016AE171E0C9010C94ED05789484B506
:1005F000826084BD84B5816084BD85B5826085BD1F
:1006000085B5816085BD80916E00816080936E00AC
:10061000109281008091810082608093810080919E
:10062000810081608093810080918000816080934F
:1006300080008091B10084608093B1008091B0000F
:1006400081608093B00080917A00846080937A000A
:1006500080917A00826080937A0080917A00816034
:1006600080937A0080917A00806880937A0010925B
:10067000C100E0913601F091370182E08083E09182
:100680003201F09133011082E0913401F091350193
:100690008FEC808310923E01E0913A01F0913B0192
:1006A00086E08083E0913801F0913901808180619A
:1006B0008083E0913801F0913901808188608083E6
:1006C000E0913801F0913901808180688083E09168
:1006D0003801F091390180818F7D808388EC90E032
:1006E0000E94660180911C018823E1F14091C701BD
:1006F0005091C8016091C3017091C40186E291E0FC
:100700000E94600042E050E068E171E086E291E022
:100710000E94600080E090E00E9466012091C30189
:100720003091C401811113C02115310519F0C9019F
:100730000E9490041092C4011092C3011092C8014B
:100740001092C7011092C6011092C50109C0109203
:10075000C8011092C7016AE171E0C9010E94ED056C
:1007600010921C010E94D801BDCF8091C3019091CD
:10077000C4010C9490042F923F924F925F926F921B
:100780007F928F929F92AF92BF92CF92DF92EF9221
:10079000FF920F931F93CF93DF93CDB7DEB7CA1BA2
:1007A000DB0B0FB6F894DEBF0FBECDBF09942A88CD
:1007B000398848885F846E847D848C849B84AA8475
:1007C000B984C884DF80EE80FD800C811B81AA8102
:1007D000B981CE0FD11D0FB6F894DEBF0FBECDBFCD
:1007E000ED010895EE0FFF1F0590F491E02D09949F
:1007F0000F931F93CF93DF938230910510F482E023
:1008000090E0E091CB01F091CC0120E030E0A0E05D
:10081000B0E0309719F1408151810281138148176E
:100820005907C8F08417950769F4109731F01296AC
:100830000C93129713961C9327C00093CB0110932F
:10084000CC0122C02115310519F04217530718F4C5
:100850009A01BD01EF01DF01F801DBCF2115310560
:10086000F9F0281B390B2430310580F48A819B81F3
:100870006115710521F0FB019383828304C090937D
:10088000CC018093CB01FE01329644C0FE01E20F01
:10089000F31F8193919322503109398328833AC001
:1008A0002091C9013091CA01232B41F4209102010A
:1008B000309103013093CA012093C90120910001B6
:1008C000309101012115310541F42DB73EB740911A
:1008D000040150910501241B350BE091C901F091F1
:1008E000CA01E217F307A0F42E1B3F0B28173907A4
:1008F00078F0AC014E5F5F4F2417350748F04E0F7C
:100900005F1F5093CA014093C9018193919302C024
:10091000E0E0F0E0CF01DF91CF911F910F910895BA
:10092000CF93DF93009709F481C0FC0132971382C3
:100930001282A091CB01B091CC01109781F420815B
:100940003181820F931F2091C9013091CA0128176C
:10095000390751F5F093CA01E093C90167C0ED0171
:1009600020E030E0CE17DF0740F44A815B819E0132
:1009700041155105F1F0EA01F5CFD383C2834081DF
:100980005181840F951FC817D90759F4888199811F
:10099000840F951F0296918380838A819B81938324
:1009A00082832115310529F4F093CC01E093CB012A
:1009B0003DC0E901FB83EA8349915991C40FD51FDA
:1009C000EC17FD0761F480819181840F951F0296D9
:1009D000E90199838883828193819B838A83E0E004
:1009E000F0E012968D919C911397009719F0FD01FC
:1009F000DC01F7CF8D919C9111979D012E5F3F4FA8
:100A0000820F931F2091C9013091CA01281739071D
:100A100069F4309729F41092CC011092CB0102C0F6
:100A200013821282B093CA01A093C901DF91CF91C2
:100A30000895A0E0B0E0EFE1F5E00C94BF03EC0115
:100A4000009721F4CB010E94F803B4C0FC01E60F2B
:100A5000F71F9C0122503109E217F30708F4A8C0E0
:100A6000D9010D911C91119706171707B0F00530A9
:100A7000110508F49BC0C80104978617970708F46E
:100A800095C002501109061B170B019311936D932A
:100A90007C93CF010E94900489C05B01A01AB10A27
:100AA0004C01800E911EA091CB01B091CC01612C24
:100AB000712CE12CF12C109709F446C08D919C917A
:100AC0001197A815B905B1F56C0142E0C40ED11C0F
:100AD000CA14DB0478F14C018A189B08640142E0D7
:100AE000C40ED11C1296BC9012971396AC91B5E02F
:100AF000CB16D10440F0B282A38391828082D901C7
:100B00006D937C9309C00E5F1F4F800F911FF901F9
:100B100091838083EB2DFA2FE114F10431F0D7019A
:100B20001396FC93EE93129741C0F093CC01E0939F
:100B3000CB013CC06816790608F43C017D01129691
:100B40000D90BC91A02DB7CF8091C9019091CA01A1
:100B500088169906E1F466167706C8F480910001BC
:100B600090910101009741F48DB79EB74091040127
:100B700050910501841B950BE817F907C8F4F09311
:100B8000CA01E093C901F901718360830FC0CB01F1
:100B90000E94F8037C01009759F0A801BE010E9451
:100BA000E405CE010E949004C70104C0CE0102C03A
:100BB00080E090E0CDB7DEB7EEE00C94DB0381E09F
:100BC00090E0F8940C94F405FB01DC0102C0019064
:100BD0000D9241505040D8F70895FB01DC0101907F
:100BE0000D920020E1F7089510E0C5E3D0E004C0C5
:100BF000FE010E94F2032196C633D107C9F7F8948B
:020C0000FFCF24
:100C02000000CD01800000000000F70060008E00AF
:0C0C12004401BF009D00B1000D0A00006D
:00000001FF
